:020000040800F2
:1000000068060020BD010008C5010008C7010008FE
:10001000C9010008CB010008CD0100080000000064
:10002000000000000000000000000000CF010008F8
:10003000D101000800000000D301000831030008CE
:10004000D7010008D7010008D7010008D701000830
:10005000D7010008D7010008D7010008D701000820
:10006000D7010008D7010008D7010008D701000810
:10007000D7010008D7010008D7010008D701000800
:10008000D7010008D7010008D701000800000000D0
:10009000000000000000000000000000D701000880
:1000A000D7010008D7010008D7010008D7010008D0
:1000B000D7010008D7010008D7010008D7010008C0
:1000C000D7010008D7010008D7010008D7010008B0
:1000D000D7010008D7010008D7010008D7010008A0
:1000E000D7010008D7010008D70100080000000070
:1000F0000000000000000000000000000000000000
:1001000000000000000000000000000000000000EF
:100110000000000000000000D7010008D70100081F
:1001200000F002F800F03AF80AA090E8000C8244CF
:100130008344AAF10107DA4501D100F02FF8AFF2AC
:10014000090EBAE80F0013F0010F18BFFB1A43F0B5
:1001500001031847BC020000DC020000103A24BF73
:1001600078C878C1FAD8520724BF30C830C144BF1C
:1001700004680C607047000000230024002500265E
:10018000103A28BF78C1FBD8520728BF30C148BFFA
:100190000B6070471FB51FBD10B510BD00F031F8E2
:1001A0001146FFF7F7FF00F01BF900F04FF803B41A
:1001B000FFF7F2FF03BC00F057F800000948804742
:1001C00009480047FEE7FEE7FEE7FEE7FEE7FEE739
:1001D000FEE7FEE7FEE7FEE704480549054A064B51
:1001E0007047000045030008210100086800002056
:1001F00068060020680200206802002070477047EF
:100200007047754600F02CF8AE4605006946534627
:1002100020F00700854618B020B5FFF7DDFFBDE8E8
:1002200020404FF000064FF000074FF000084FF05D
:10023000000B21F00701AC46ACE8C009ACE8C009EE
:10024000ACE8C009ACE8C0098D46704710B504465B
:10025000AFF300802046BDE81040FFF7A8BF0000C4
:10026000004870470400002001491820ABBEFEE79B
:1002700026000200704700000948816941F0100122
:1002800081610848416821F010014160416841F0F6
:1002900020014160416821F0C001416070470000C9
:1002A00000100240001001400CB500221F480092CF
:1002B0000192016841F4803101604FF4A06301684C
:1002C00001F4003101910099491C0091019911B983
:1002D00000999942F3D10168890324D50121019144
:1002E000416841604168416041684160416821F472
:1002F0007C114160416841F498114160016841F00E
:100300008071016001688901FCD5416821F0030119
:100310004160416841F0020141604168C1F38101DF
:100320000229FAD10CBD01920CBD00000010024060
:1003300003480168002902D00168491E0160704726
:1003400000000020104810B5016841F00101016073
:1003500041680E4A1140416001680D4A1140016038
:10036000016821F480210160416821F4FE014160AF
:100370004FF41F0181600021C162FFF795FF05491D
:100380004FF00060086010BD001002400000FFF850
:10039000FFFFF6FE08ED00E04FF0E020416901F0BC
:1003A0007F41416145F6D8514161816901F07F414A
:1003B0008161016941F00701016170474FF0E0215F
:1003C0008A6902F07F428A6145F6D8528A61034900
:1003D000086008680028FCD1704700000000002079
:1003E000FFF74AFFFFF7D8FF084B4FF47A741869FC
:1003F00040F4007018612046FFF7E0FF186940F0F4
:10040000007119612046FFF7D9FFF0E700100140A5
:100410003004000800000020040000005C01000817
:10042000340400080400002064060000780100087D
:0404300000000000C8
:04000005080001BD31
:00000001FF
