:020000040800F2
:1000000060060020A1010008A9010008AB0100085A
:10001000AD010008AF010008B101000800000000B8
:10002000000000000000000000000000B301000814
:10003000B501000800000000B7010008B901000880
:10004000BB010008BB010008BB010008BB010008A0
:10005000BB010008BB010008BB010008BB01000890
:10006000BB010008BB010008BB010008BB01000880
:10007000BB010008BB010008BB010008BB01000870
:10008000BB010008BB010008BB0100080000000024
:10009000000000000000000000000000BB0100089C
:1000A000BB010008BB010008BB010008BB01000840
:1000B000BB010008BB010008BB010008BB01000830
:1000C000BB010008BB010008BB010008BB01000820
:1000D000BB010008BB010008BB010008BB01000810
:1000E000BB010008BB010008BB01000800000000C4
:1000F0000000000000000000000000000000000000
:1001000000000000000000000000000000000000EF
:100110000000000000000000BB010008BB01000857
:1001200000F002F800F02CF80AA090E8000C8244DD
:100130008344AAF10107DA4501D100F021F8AFF2BA
:10014000090EBAE80F0013F0010F18BFFB1A43F0B5
:1001500001031847880200009802000000230024D1
:1001600000250026103A28BF78C1FBD8520728BFC7
:1001700030C148BF0B6070471FB51FBD10B510BD23
:1001800000F031F81146FFF7F7FF00F015F900F025
:100190004FF803B4FFF7F2FF03BC00F057F800007C
:1001A0000948804709480047FEE7FEE7FEE7FEE70B
:1001B000FEE7FEE7FEE7FEE7FEE7FEE70448054947
:1001C000054A064B7047000055030008210100084E
:1001D0006000002060060020600200206002002015
:1001E000704770477047754600F02CF8AE46050022
:1001F0006946534620F00700854618B020B5FFF742
:10020000DDFFBDE820404FF000064FF000074FF043
:1002100000084FF0000B21F00701AC46ACE8C00924
:10022000ACE8C009ACE8C009ACE8C0098D4670472D
:1002300010B50446AFF300802046BDE81040FFF73C
:10024000A8BF0000004870470000002001491820A6
:10025000ABBEFEE726000200704700000B48806935
:1002600040F01000094988610948406820F01000FA
:10027000074948600846406840F02000486008464A
:10028000406820F0C0004860704700000010024045
:100290000010014010B500F001F810BD0CB50020B1
:1002A000019000902A48006840F480302849086096
:1002B00000BF2748006800F4003000900198401CFF
:1002C0000190009818B90198B0F5A06FF1D12048BD
:1002D000006800F4003010B10120009001E000201F
:1002E00000900098012831D11948406818494860A9
:1002F00008464068486008464068486008464068CC
:1003000020F47C1048600846406840F4981048602B
:100310000846006840F08070086000BF0C48006824
:1003200000F000700028F9D00948406820F0030070
:10033000074948600846406840F00200486000BF36
:100340000348406800F00C000828F9D10CBD0000FB
:100350000010024010B51448006840F00100124936
:10036000086008464068114908400F49486008463F
:1003700000680F4908400C4908600846006820F4EE
:10038000802008600846406820F4FE0048604FF472
:100390001F0088600020C862FFF77CFF4FF00060FC
:1003A0000449086010BD0000001002400000FFF882
:1003B000FFFFF6FE08ED00E0FFF750FF0AE00648F9
:1003C000006940F40070044908610846006940F083
:1003D00000700861F3E7000000100140EC03000822
:0C03E00000000020600600005C01000826
:04000005080001A14D
:00000001FF
